{
  "_format": "hh-sol-artifact-1",
  "contractName": "EmployeeRegistry",
  "sourceName": "contracts/EmployeeRegistry.sol",
  "abi": [
    {
      "inputs": [],
      "stateMutability": "nonpayable",
      "type": "constructor"
    },
    {
      "anonymous": false,
      "inputs": [
        {
          "indexed": true,
          "internalType": "address",
          "name": "employeeAddress",
          "type": "address"
        },
        {
          "indexed": false,
          "internalType": "string",
          "name": "name",
          "type": "string"
        },
        {
          "indexed": false,
          "internalType": "string",
          "name": "department",
          "type": "string"
        }
      ],
      "name": "EmployeeAdded",
      "type": "event"
    },
    {
      "anonymous": false,
      "inputs": [
        {
          "indexed": true,
          "internalType": "address",
          "name": "employeeAddress",
          "type": "address"
        }
      ],
      "name": "EmployeeRemoved",
      "type": "event"
    },
    {
      "inputs": [
        {
          "internalType": "address",
          "name": "_employeeAddress",
          "type": "address"
        },
        {
          "internalType": "string",
          "name": "_name",
          "type": "string"
        },
        {
          "internalType": "string",
          "name": "_department",
          "type": "string"
        },
        {
          "internalType": "string",
          "name": "_username",
          "type": "string"
        },
        {
          "internalType": "string",
          "name": "_password",
          "type": "string"
        }
      ],
      "name": "addEmployee",
      "outputs": [],
      "stateMutability": "nonpayable",
      "type": "function"
    },
    {
      "inputs": [],
      "name": "admin",
      "outputs": [
        {
          "internalType": "address",
          "name": "",
          "type": "address"
        }
      ],
      "stateMutability": "view",
      "type": "function"
    },
    {
      "inputs": [
        {
          "internalType": "address",
          "name": "",
          "type": "address"
        }
      ],
      "name": "employees",
      "outputs": [
        {
          "internalType": "string",
          "name": "name",
          "type": "string"
        },
        {
          "internalType": "string",
          "name": "department",
          "type": "string"
        },
        {
          "internalType": "string",
          "name": "username",
          "type": "string"
        },
        {
          "internalType": "string",
          "name": "password",
          "type": "string"
        },
        {
          "internalType": "bool",
          "name": "exists",
          "type": "bool"
        }
      ],
      "stateMutability": "view",
      "type": "function"
    },
    {
      "inputs": [
        {
          "internalType": "address",
          "name": "_employeeAddress",
          "type": "address"
        }
      ],
      "name": "getEmployee",
      "outputs": [
        {
          "internalType": "string",
          "name": "name",
          "type": "string"
        },
        {
          "internalType": "string",
          "name": "department",
          "type": "string"
        },
        {
          "internalType": "string",
          "name": "username",
          "type": "string"
        },
        {
          "internalType": "bool",
          "name": "exists",
          "type": "bool"
        }
      ],
      "stateMutability": "view",
      "type": "function"
    },
    {
      "inputs": [
        {
          "internalType": "address",
          "name": "_employeeAddress",
          "type": "address"
        }
      ],
      "name": "removeEmployee",
      "outputs": [],
      "stateMutability": "nonpayable",
      "type": "function"
    },
    {
      "inputs": [
        {
          "internalType": "string",
          "name": "",
          "type": "string"
        }
      ],
      "name": "usernames",
      "outputs": [
        {
          "internalType": "bool",
          "name": "",
          "type": "bool"
        }
      ],
      "stateMutability": "view",
      "type": "function"
    },
    {
      "inputs": [
        {
          "internalType": "address",
          "name": "_employeeAddress",
          "type": "address"
        },
        {
          "internalType": "string",
          "name": "_password",
          "type": "string"
        }
      ],
      "name": "verifyEmployee",
      "outputs": [
        {
          "internalType": "bool",
          "name": "",
          "type": "bool"
        }
      ],
      "stateMutability": "view",
      "type": "function"
    }
  ],
  "bytecode": "0x608060405234801561001057600080fd5b50336000806101000a81548173ffffffffffffffffffffffffffffffffffffffff021916908373ffffffffffffffffffffffffffffffffffffffff160217905550611b3d806100606000396000f3fe608060405234801561001057600080fd5b506004361061007d5760003560e01c8063cebcacad1161005b578063cebcacad14610101578063d067894714610131578063d108177a14610165578063f851a440146101815761007d565b806332648e09146100825780634b2aeda3146100b5578063aaee301f146100d1575b600080fd5b61009c60048036038101906100979190611114565b61019f565b6040516100ac94939291906111ec565b60405180910390f35b6100cf60048036038101906100ca919061137b565b61047a565b005b6100eb60048036038101906100e69190611466565b610776565b6040516100f891906114af565b60405180910390f35b61011b600480360381019061011691906114ca565b6107ac565b60405161012891906114af565b60405180910390f35b61014b60048036038101906101469190611114565b610ac7565b60405161015c959493929190611526565b60405180910390f35b61017f600480360381019061017a9190611114565b610d2a565b005b610189611021565b60405161019691906115a4565b60405180910390f35b6060806060600080600160008773ffffffffffffffffffffffffffffffffffffffff1673ffffffffffffffffffffffffffffffffffffffff1681526020019081526020016000206040518060a0016040529081600082018054610201906115ee565b80601f016020809104026020016040519081016040528092919081815260200182805461022d906115ee565b801561027a5780601f1061024f5761010080835404028352916020019161027a565b820191906000526020600020905b81548152906001019060200180831161025d57829003601f168201915b50505050508152602001600182018054610293906115ee565b80601f01602080910402602001604051908101604052809291908181526020018280546102bf906115ee565b801561030c5780601f106102e15761010080835404028352916020019161030c565b820191906000526020600020905b8154815290600101906020018083116102ef57829003601f168201915b50505050508152602001600282018054610325906115ee565b80601f0160208091040260200160405190810160405280929190818152602001828054610351906115ee565b801561039e5780601f106103735761010080835404028352916020019161039e565b820191906000526020600020905b81548152906001019060200180831161038157829003601f168201915b505050505081526020016003820180546103b7906115ee565b80601f01602080910402602001604051908101604052809291908181526020018280546103e3906115ee565b80156104305780601f1061040557610100808354040283529160200191610430565b820191906000526020600020905b81548152906001019060200180831161041357829003601f168201915b505050505081526020016004820160009054906101000a900460ff161515151581525050905080600001518160200151826040015183608001519450945094509450509193509193565b60008054906101000a900473ffffffffffffffffffffffffffffffffffffffff1673ffffffffffffffffffffffffffffffffffffffff163373ffffffffffffffffffffffffffffffffffffffff1614610508576040517f08c379a00000000000000000000000000000000000000000000000000000000081526004016104ff90611691565b60405180910390fd5b600160008673ffffffffffffffffffffffffffffffffffffffff1673ffffffffffffffffffffffffffffffffffffffff16815260200190815260200160002060040160009054906101000a900460ff1615610598576040517f08c379a000000000000000000000000000000000000000000000000000000000815260040161058f906116fd565b60405180910390fd5b6002826040516105a89190611759565b908152602001604051809103902060009054906101000a900460ff1615610604576040517f08c379a00000000000000000000000000000000000000000000000000000000081526004016105fb906117bc565b60405180910390fd5b6040518060a0016040528085815260200184815260200183815260200182815260200160011515815250600160008773ffffffffffffffffffffffffffffffffffffffff1673ffffffffffffffffffffffffffffffffffffffff16815260200190815260200160002060008201518160000190816106829190611992565b5060208201518160010190816106989190611992565b5060408201518160020190816106ae9190611992565b5060608201518160030190816106c49190611992565b5060808201518160040160006101000a81548160ff02191690831515021790555090505060016002836040516106fa9190611759565b908152602001604051809103902060006101000a81548160ff0219169083151502179055508473ffffffffffffffffffffffffffffffffffffffff167fe90b033cd3a59f7cfff7992456f26ba604d1072eae8fce08a7087de235d615168585604051610767929190611a64565b60405180910390a25050505050565b6002818051602081018201805184825260208301602085012081835280955050505050506000915054906101000a900460ff1681565b600080600160008573ffffffffffffffffffffffffffffffffffffffff1673ffffffffffffffffffffffffffffffffffffffff1681526020019081526020016000206040518060a0016040529081600082018054610809906115ee565b80601f0160208091040260200160405190810160405280929190818152602001828054610835906115ee565b80156108825780601f1061085757610100808354040283529160200191610882565b820191906000526020600020905b81548152906001019060200180831161086557829003601f168201915b5050505050815260200160018201805461089b906115ee565b80601f01602080910402602001604051908101604052809291908181526020018280546108c7906115ee565b80156109145780601f106108e957610100808354040283529160200191610914565b820191906000526020600020905b8154815290600101906020018083116108f757829003601f168201915b5050505050815260200160028201805461092d906115ee565b80601f0160208091040260200160405190810160405280929190818152602001828054610959906115ee565b80156109a65780601f1061097b576101008083540402835291602001916109a6565b820191906000526020600020905b81548152906001019060200180831161098957829003601f168201915b505050505081526020016003820180546109bf906115ee565b80601f01602080910402602001604051908101604052809291908181526020018280546109eb906115ee565b8015610a385780601f10610a0d57610100808354040283529160200191610a38565b820191906000526020600020905b815481529060010190602001808311610a1b57829003601f168201915b505050505081526020016004820160009054906101000a900460ff161515151581525050905080608001518015610abe575082604051602001610a7b9190611759565b604051602081830303815290604052805190602001208160600151604051602001610aa69190611759565b60405160208183030381529060405280519060200120145b91505092915050565b6001602052806000526040600020600091509050806000018054610aea906115ee565b80601f0160208091040260200160405190810160405280929190818152602001828054610b16906115ee565b8015610b635780601f10610b3857610100808354040283529160200191610b63565b820191906000526020600020905b815481529060010190602001808311610b4657829003601f168201915b505050505090806001018054610b78906115ee565b80601f0160208091040260200160405190810160405280929190818152602001828054610ba4906115ee565b8015610bf15780601f10610bc657610100808354040283529160200191610bf1565b820191906000526020600020905b815481529060010190602001808311610bd457829003601f168201915b505050505090806002018054610c06906115ee565b80601f0160208091040260200160405190810160405280929190818152602001828054610c32906115ee565b8015610c7f5780601f10610c5457610100808354040283529160200191610c7f565b820191906000526020600020905b815481529060010190602001808311610c6257829003601f168201915b505050505090806003018054610c94906115ee565b80601f0160208091040260200160405190810160405280929190818152602001828054610cc0906115ee565b8015610d0d5780601f10610ce257610100808354040283529160200191610d0d565b820191906000526020600020905b815481529060010190602001808311610cf057829003601f168201915b5050505050908060040160009054906101000a900460ff16905085565b60008054906101000a900473ffffffffffffffffffffffffffffffffffffffff1673ffffffffffffffffffffffffffffffffffffffff163373ffffffffffffffffffffffffffffffffffffffff1614610db8576040517f08c379a0000000000000000000000000000000000000000000000000000000008152600401610daf90611691565b60405180910390fd5b600160008273ffffffffffffffffffffffffffffffffffffffff1673ffffffffffffffffffffffffffffffffffffffff16815260200190815260200160002060040160009054906101000a900460ff16610e47576040517f08c379a0000000000000000000000000000000000000000000000000000000008152600401610e3e90611ae7565b60405180910390fd5b6000600160008373ffffffffffffffffffffffffffffffffffffffff1673ffffffffffffffffffffffffffffffffffffffff1681526020019081526020016000206002018054610e96906115ee565b80601f0160208091040260200160405190810160405280929190818152602001828054610ec2906115ee565b8015610f0f5780601f10610ee457610100808354040283529160200191610f0f565b820191906000526020600020905b815481529060010190602001808311610ef257829003601f168201915b50505050509050600281604051610f269190611759565b908152602001604051809103902060006101000a81549060ff0219169055600160008373ffffffffffffffffffffffffffffffffffffffff1673ffffffffffffffffffffffffffffffffffffffff16815260200190815260200160002060008082016000610f949190611045565b600182016000610fa49190611045565b600282016000610fb49190611045565b600382016000610fc49190611045565b6004820160006101000a81549060ff021916905550508173ffffffffffffffffffffffffffffffffffffffff167fabae6e64cb4315875c29d42347a312f5e9fce4ab564e9722b43dd78d0751135a60405160405180910390a25050565b60008054906101000a900473ffffffffffffffffffffffffffffffffffffffff1681565b508054611051906115ee565b6000825580601f106110635750611082565b601f0160209004906000526020600020908101906110819190611085565b5b50565b5b8082111561109e576000816000905550600101611086565b5090565b6000604051905090565b600080fd5b600080fd5b600073ffffffffffffffffffffffffffffffffffffffff82169050919050565b60006110e1826110b6565b9050919050565b6110f1816110d6565b81146110fc57600080fd5b50565b60008135905061110e816110e8565b92915050565b60006020828403121561112a576111296110ac565b5b6000611138848285016110ff565b91505092915050565b600081519050919050565b600082825260208201905092915050565b60005b8381101561117b578082015181840152602081019050611160565b60008484015250505050565b6000601f19601f8301169050919050565b60006111a382611141565b6111ad818561114c565b93506111bd81856020860161115d565b6111c681611187565b840191505092915050565b60008115159050919050565b6111e6816111d1565b82525050565b600060808201905081810360008301526112068187611198565b9050818103602083015261121a8186611198565b9050818103604083015261122e8185611198565b905061123d60608301846111dd565b95945050505050565b600080fd5b600080fd5b7f4e487b7100000000000000000000000000000000000000000000000000000000600052604160045260246000fd5b61128882611187565b810181811067ffffffffffffffff821117156112a7576112a6611250565b5b80604052505050565b60006112ba6110a2565b90506112c6828261127f565b919050565b600067ffffffffffffffff8211156112e6576112e5611250565b5b6112ef82611187565b9050602081019050919050565b82818337600083830152505050565b600061131e611319846112cb565b6112b0565b90508281526020810184848401111561133a5761133961124b565b5b6113458482856112fc565b509392505050565b600082601f83011261136257611361611246565b5b813561137284826020860161130b565b91505092915050565b600080600080600060a08688031215611397576113966110ac565b5b60006113a5888289016110ff565b955050602086013567ffffffffffffffff8111156113c6576113c56110b1565b5b6113d28882890161134d565b945050604086013567ffffffffffffffff8111156113f3576113f26110b1565b5b6113ff8882890161134d565b935050606086013567ffffffffffffffff8111156114205761141f6110b1565b5b61142c8882890161134d565b925050608086013567ffffffffffffffff81111561144d5761144c6110b1565b5b6114598882890161134d565b9150509295509295909350565b60006020828403121561147c5761147b6110ac565b5b600082013567ffffffffffffffff81111561149a576114996110b1565b5b6114a68482850161134d565b91505092915050565b60006020820190506114c460008301846111dd565b92915050565b600080604083850312156114e1576114e06110ac565b5b60006114ef858286016110ff565b925050602083013567ffffffffffffffff8111156115105761150f6110b1565b5b61151c8582860161134d565b9150509250929050565b600060a08201905081810360008301526115408188611198565b905081810360208301526115548187611198565b905081810360408301526115688186611198565b9050818103606083015261157c8185611198565b905061158b60808301846111dd565b9695505050505050565b61159e816110d6565b82525050565b60006020820190506115b96000830184611595565b92915050565b7f4e487b7100000000000000000000000000000000000000000000000000000000600052602260045260246000fd5b6000600282049050600182168061160657607f821691505b602082108103611619576116186115bf565b5b50919050565b7f4f6e6c792061646d696e2063616e20706572666f726d2074686973206163746960008201527f6f6e000000000000000000000000000000000000000000000000000000000000602082015250565b600061167b60228361114c565b91506116868261161f565b604082019050919050565b600060208201905081810360008301526116aa8161166e565b9050919050565b7f456d706c6f79656520616c726561647920657869737473000000000000000000600082015250565b60006116e760178361114c565b91506116f2826116b1565b602082019050919050565b60006020820190508181036000830152611716816116da565b9050919050565b600081905092915050565b600061173382611141565b61173d818561171d565b935061174d81856020860161115d565b80840191505092915050565b60006117658284611728565b915081905092915050565b7f557365726e616d6520616c72656164792074616b656e00000000000000000000600082015250565b60006117a660168361114c565b91506117b182611770565b602082019050919050565b600060208201905081810360008301526117d581611799565b9050919050565b60008190508160005260206000209050919050565b60006020601f8301049050919050565b600082821b905092915050565b60006008830261183e7fffffffffffffffffffffffffffffffffffffffffffffffffffffffffffffffff82611801565b6118488683611801565b95508019841693508086168417925050509392505050565b6000819050919050565b6000819050919050565b600061188f61188a61188584611860565b61186a565b611860565b9050919050565b6000819050919050565b6118a983611874565b6118bd6118b582611896565b84845461180e565b825550505050565b600090565b6118d26118c5565b6118dd8184846118a0565b505050565b5b81811015611901576118f66000826118ca565b6001810190506118e3565b5050565b601f82111561194657611917816117dc565b611920846117f1565b8101602085101561192f578190505b61194361193b856117f1565b8301826118e2565b50505b505050565b600082821c905092915050565b60006119696000198460080261194b565b1980831691505092915050565b60006119828383611958565b9150826002028217905092915050565b61199b82611141565b67ffffffffffffffff8111156119b4576119b3611250565b5b6119be82546115ee565b6119c9828285611905565b600060209050601f8311600181146119fc57600084156119ea578287015190505b6119f48582611976565b865550611a5c565b601f198416611a0a866117dc565b60005b82811015611a3257848901518255600182019150602085019450602081019050611a0d565b86831015611a4f5784890151611a4b601f891682611958565b8355505b6001600288020188555050505b505050505050565b60006040820190508181036000830152611a7e8185611198565b90508181036020830152611a928184611198565b90509392505050565b7f456d706c6f79656520646f6573206e6f74206578697374000000000000000000600082015250565b6000611ad160178361114c565b9150611adc82611a9b565b602082019050919050565b60006020820190508181036000830152611b0081611ac4565b905091905056fea26469706673582212206b1a9b9b2ad281ffcf3c6f2a070968c840dc7fed882cab914681d82dfca05e5864736f6c63430008140033",
  "linkReferences": {},
  "deployedLinkReferences": {}
}