{
  "contractName": "Scholarship",
  "abi": [
    {
      "inputs": [],
      "stateMutability": "nonpayable",
      "type": "constructor"
    },
    {
      "anonymous": false,
      "inputs": [
        {
          "indexed": true,
          "internalType": "address",
          "name": "student",
          "type": "address"
        },
        {
          "indexed": false,
          "internalType": "uint256",
          "name": "applicationId",
          "type": "uint256"
        }
      ],
      "name": "ApplicationApproved",
      "type": "event"
    },
    {
      "anonymous": false,
      "inputs": [
        {
          "indexed": true,
          "internalType": "address",
          "name": "student",
          "type": "address"
        },
        {
          "indexed": false,
          "internalType": "uint256",
          "name": "applicationId",
          "type": "uint256"
        }
      ],
      "name": "ApplicationRejected",
      "type": "event"
    },
    {
      "anonymous": false,
      "inputs": [
        {
          "indexed": true,
          "internalType": "address",
          "name": "student",
          "type": "address"
        },
        {
          "indexed": false,
          "internalType": "uint256",
          "name": "applicationId",
          "type": "uint256"
        }
      ],
      "name": "ApplicationSubmitted",
      "type": "event"
    },
    {
      "anonymous": false,
      "inputs": [
        {
          "indexed": true,
          "internalType": "address",
          "name": "student",
          "type": "address"
        },
        {
          "indexed": false,
          "internalType": "uint256",
          "name": "amount",
          "type": "uint256"
        }
      ],
      "name": "ScholarshipGranted",
      "type": "event"
    },
    {
      "anonymous": false,
      "inputs": [
        {
          "indexed": true,
          "internalType": "address",
          "name": "student",
          "type": "address"
        },
        {
          "indexed": false,
          "internalType": "uint256",
          "name": "amount",
          "type": "uint256"
        }
      ],
      "name": "ScholarshipWithdrawn",
      "type": "event"
    },
    {
      "inputs": [],
      "name": "admin",
      "outputs": [
        {
          "internalType": "address",
          "name": "",
          "type": "address"
        }
      ],
      "stateMutability": "view",
      "type": "function",
      "constant": true
    },
    {
      "inputs": [
        {
          "internalType": "address",
          "name": "",
          "type": "address"
        }
      ],
      "name": "applicationCount",
      "outputs": [
        {
          "internalType": "uint256",
          "name": "",
          "type": "uint256"
        }
      ],
      "stateMutability": "view",
      "type": "function",
      "constant": true
    },
    {
      "inputs": [
        {
          "internalType": "uint256",
          "name": "",
          "type": "uint256"
        }
      ],
      "name": "applications",
      "outputs": [
        {
          "internalType": "address",
          "name": "student",
          "type": "address"
        },
        {
          "internalType": "string",
          "name": "name",
          "type": "string"
        },
        {
          "internalType": "string",
          "name": "department",
          "type": "string"
        },
        {
          "internalType": "uint256",
          "name": "year",
          "type": "uint256"
        },
        {
          "internalType": "string",
          "name": "reason",
          "type": "string"
        },
        {
          "internalType": "uint256",
          "name": "amount",
          "type": "uint256"
        },
        {
          "internalType": "bool",
          "name": "isApproved",
          "type": "bool"
        },
        {
          "internalType": "bool",
          "name": "isRejected",
          "type": "bool"
        },
        {
          "internalType": "uint256",
          "name": "timestamp",
          "type": "uint256"
        }
      ],
      "stateMutability": "view",
      "type": "function",
      "constant": true
    },
    {
      "inputs": [
        {
          "internalType": "address",
          "name": "",
          "type": "address"
        }
      ],
      "name": "scholarshipBalances",
      "outputs": [
        {
          "internalType": "uint256",
          "name": "",
          "type": "uint256"
        }
      ],
      "stateMutability": "view",
      "type": "function",
      "constant": true
    },
    {
      "inputs": [
        {
          "internalType": "address",
          "name": "",
          "type": "address"
        }
      ],
      "name": "scholarshipRecipients",
      "outputs": [
        {
          "internalType": "bool",
          "name": "",
          "type": "bool"
        }
      ],
      "stateMutability": "view",
      "type": "function",
      "constant": true
    },
    {
      "inputs": [
        {
          "internalType": "string",
          "name": "name",
          "type": "string"
        },
        {
          "internalType": "string",
          "name": "department",
          "type": "string"
        },
        {
          "internalType": "uint256",
          "name": "year",
          "type": "uint256"
        },
        {
          "internalType": "string",
          "name": "reason",
          "type": "string"
        },
        {
          "internalType": "uint256",
          "name": "amount",
          "type": "uint256"
        }
      ],
      "name": "submitApplication",
      "outputs": [],
      "stateMutability": "nonpayable",
      "type": "function"
    },
    {
      "inputs": [
        {
          "internalType": "uint256",
          "name": "applicationId",
          "type": "uint256"
        }
      ],
      "name": "approveApplication",
      "outputs": [],
      "stateMutability": "nonpayable",
      "type": "function"
    },
    {
      "inputs": [
        {
          "internalType": "uint256",
          "name": "applicationId",
          "type": "uint256"
        }
      ],
      "name": "rejectApplication",
      "outputs": [],
      "stateMutability": "nonpayable",
      "type": "function"
    },
    {
      "inputs": [
        {
          "internalType": "uint256",
          "name": "applicationId",
          "type": "uint256"
        }
      ],
      "name": "getApplication",
      "outputs": [
        {
          "internalType": "address",
          "name": "student",
          "type": "address"
        },
        {
          "internalType": "string",
          "name": "name",
          "type": "string"
        },
        {
          "internalType": "string",
          "name": "department",
          "type": "string"
        },
        {
          "internalType": "uint256",
          "name": "year",
          "type": "uint256"
        },
        {
          "internalType": "string",
          "name": "reason",
          "type": "string"
        },
        {
          "internalType": "uint256",
          "name": "amount",
          "type": "uint256"
        },
        {
          "internalType": "bool",
          "name": "isApproved",
          "type": "bool"
        },
        {
          "internalType": "bool",
          "name": "isRejected",
          "type": "bool"
        },
        {
          "internalType": "uint256",
          "name": "timestamp",
          "type": "uint256"
        }
      ],
      "stateMutability": "view",
      "type": "function",
      "constant": true
    },
    {
      "inputs": [],
      "name": "getApplicationsCount",
      "outputs": [
        {
          "internalType": "uint256",
          "name": "",
          "type": "uint256"
        }
      ],
      "stateMutability": "view",
      "type": "function",
      "constant": true
    },
    {
      "inputs": [
        {
          "internalType": "uint256",
          "name": "amount",
          "type": "uint256"
        }
      ],
      "name": "withdrawScholarship",
      "outputs": [],
      "stateMutability": "nonpayable",
      "type": "function"
    },
    {
      "inputs": [
        {
          "internalType": "address",
          "name": "student",
          "type": "address"
        }
      ],
      "name": "getScholarshipBalance",
      "outputs": [
        {
          "internalType": "uint256",
          "name": "",
          "type": "uint256"
        }
      ],
      "stateMutability": "view",
      "type": "function",
      "constant": true
    },
    {
      "inputs": [
        {
          "internalType": "address",
          "name": "student",
          "type": "address"
        }
      ],
      "name": "isScholarshipRecipient",
      "outputs": [
        {
          "internalType": "bool",
          "name": "",
          "type": "bool"
        }
      ],
      "stateMutability": "view",
      "type": "function",
      "constant": true
    }
  ],
  "bytecode": "0x608060405234801561001057600080fd5b50336000806101000a81548173ffffffffffffffffffffffffffffffffffffffff021916908373ffffffffffffffffffffffffffffffffffffffff160217905550611c28806100606000396000f3fe608060405234801561001057600080fd5b50600436106100cf5760003560e01c806365bcc7c41161008c578063c5e83e9711610066578063c5e83e9714610252578063d974ef221461026e578063dfefadff1461028a578063f851a440146102c2576100cf565b806365bcc7c4146101d45780636aef14ca146101f2578063b7cbbe2e14610222576100cf565b8063048abd17146100d45780631f2f4bfd146100f0578063213fbf1b1461012857806344680822146101445780634b3a74da146101745780634b802e19146101a4575b600080fd5b6100ee60048036038101906100e991906114d3565b6102e0565b005b61010a60048036038101906101059190611592565b61051b565b60405161011f999897969594939291906117a2565b60405180910390f35b610142600480360381019061013d9190611592565b610877565b005b61015e600480360381019061015991906114aa565b610c08565b60405161016b91906118ff565b60405180910390f35b61018e600480360381019061018991906114aa565b610c20565b60405161019b9190611844565b60405180910390f35b6101be60048036038101906101b991906114aa565b610c76565b6040516101cb9190611844565b60405180910390f35b6101dc610c96565b6040516101e991906118ff565b60405180910390f35b61020c600480360381019061020791906114aa565b610ca3565b60405161021991906118ff565b60405180910390f35b61023c600480360381019061023791906114aa565b610cbb565b60405161024991906118ff565b60405180910390f35b61026c60048036038101906102679190611592565b610d04565b005b61028860048036038101906102839190611592565b610f25565b005b6102a4600480360381019061029f9190611592565b611121565b6040516102b9999897969594939291906117a2565b60405180910390f35b6102ca611351565b6040516102d79190611787565b60405180910390f35b6000600380549050905060036040518061012001604052803373ffffffffffffffffffffffffffffffffffffffff16815260200188815260200187815260200186815260200185815260200184815260200160001515815260200160001515815260200142815250908060018154018082558091505060019003906000526020600020906008020160009091909190915060008201518160000160006101000a81548173ffffffffffffffffffffffffffffffffffffffff021916908373ffffffffffffffffffffffffffffffffffffffff16021790555060208201518160010190805190602001906103d4929190611375565b5060408201518160020190805190602001906103f1929190611375565b50606082015181600301556080820151816004019080519060200190610418929190611375565b5060a0820151816005015560c08201518160060160006101000a81548160ff02191690831515021790555060e08201518160060160016101000a81548160ff02191690831515021790555061010082015181600701555050600460003373ffffffffffffffffffffffffffffffffffffffff1673ffffffffffffffffffffffffffffffffffffffff16815260200190815260200160002060008154809291906104c090611add565b91905055503373ffffffffffffffffffffffffffffffffffffffff167f42b09ff3689697d5c36406edc0d1a16211e12fd1109f240d7e16d498afc7545f8260405161050b91906118ff565b60405180910390a2505050505050565b6000606080600060606000806000806003805490508a10610571576040517f08c379a0000000000000000000000000000000000000000000000000000000008152600401610568906118df565b60405180910390fd5b600060038b815481106105ad577f4e487b7100000000000000000000000000000000000000000000000000000000600052603260045260246000fd5b9060005260206000209060080201604051806101200160405290816000820160009054906101000a900473ffffffffffffffffffffffffffffffffffffffff1673ffffffffffffffffffffffffffffffffffffffff1673ffffffffffffffffffffffffffffffffffffffff16815260200160018201805461062d90611aab565b80601f016020809104026020016040519081016040528092919081815260200182805461065990611aab565b80156106a65780601f1061067b576101008083540402835291602001916106a6565b820191906000526020600020905b81548152906001019060200180831161068957829003601f168201915b505050505081526020016002820180546106bf90611aab565b80601f01602080910402602001604051908101604052809291908181526020018280546106eb90611aab565b80156107385780601f1061070d57610100808354040283529160200191610738565b820191906000526020600020905b81548152906001019060200180831161071b57829003601f168201915b505050505081526020016003820154815260200160048201805461075b90611aab565b80601f016020809104026020016040519081016040528092919081815260200182805461078790611aab565b80156107d45780601f106107a9576101008083540402835291602001916107d4565b820191906000526020600020905b8154815290600101906020018083116107b757829003601f168201915b50505050508152602001600582015481526020016006820160009054906101000a900460ff161515151581526020016006820160019054906101000a900460ff161515151581526020016007820154815250509050806000015181602001518260400151836060015184608001518560a001518660c001518760e00151886101000151995099509950995099509950995099509950509193959799909294969850565b60008054906101000a900473ffffffffffffffffffffffffffffffffffffffff1673ffffffffffffffffffffffffffffffffffffffff163373ffffffffffffffffffffffffffffffffffffffff1614610905576040517f08c379a00000000000000000000000000000000000000000000000000000000081526004016108fc9061189f565b60405180910390fd5b600380549050811061094c576040517f08c379a0000000000000000000000000000000000000000000000000000000008152600401610943906118df565b60405180910390fd5b600060038281548110610988577f4e487b7100000000000000000000000000000000000000000000000000000000600052603260045260246000fd5b906000526020600020906008020190508060060160009054906101000a900460ff161580156109c657508060060160019054906101000a900460ff16155b610a05576040517f08c379a00000000000000000000000000000000000000000000000000000000081526004016109fc9061187f565b60405180910390fd5b60018160060160006101000a81548160ff0219169083151502179055508060050154600160008360000160009054906101000a900473ffffffffffffffffffffffffffffffffffffffff1673ffffffffffffffffffffffffffffffffffffffff1673ffffffffffffffffffffffffffffffffffffffff1681526020019081526020016000206000828254610a999190611997565b925050819055506001600260008360000160009054906101000a900473ffffffffffffffffffffffffffffffffffffffff1673ffffffffffffffffffffffffffffffffffffffff1673ffffffffffffffffffffffffffffffffffffffff16815260200190815260200160002060006101000a81548160ff0219169083151502179055508060000160009054906101000a900473ffffffffffffffffffffffffffffffffffffffff1673ffffffffffffffffffffffffffffffffffffffff167f521fc5eaa62ed52a735f1d8d6fb46aa457cea19235e8ad937404b503bdefa10783604051610b8691906118ff565b60405180910390a28060000160009054906101000a900473ffffffffffffffffffffffffffffffffffffffff1673ffffffffffffffffffffffffffffffffffffffff167f838c9e9464838e4789623cf6ffb4b48c088ec067e6048d34ab02f7a606016de78260050154604051610bfc91906118ff565b60405180910390a25050565b60016020528060005260406000206000915090505481565b6000600260008373ffffffffffffffffffffffffffffffffffffffff1673ffffffffffffffffffffffffffffffffffffffff16815260200190815260200160002060009054906101000a900460ff169050919050565b60026020528060005260406000206000915054906101000a900460ff1681565b6000600380549050905090565b60046020528060005260406000206000915090505481565b6000600160008373ffffffffffffffffffffffffffffffffffffffff1673ffffffffffffffffffffffffffffffffffffffff168152602001908152602001600020549050919050565b60008054906101000a900473ffffffffffffffffffffffffffffffffffffffff1673ffffffffffffffffffffffffffffffffffffffff163373ffffffffffffffffffffffffffffffffffffffff1614610d92576040517f08c379a0000000000000000000000000000000000000000000000000000000008152600401610d899061189f565b60405180910390fd5b6003805490508110610dd9576040517f08c379a0000000000000000000000000000000000000000000000000000000008152600401610dd0906118df565b60405180910390fd5b600060038281548110610e15577f4e487b7100000000000000000000000000000000000000000000000000000000600052603260045260246000fd5b906000526020600020906008020190508060060160009054906101000a900460ff16158015610e5357508060060160019054906101000a900460ff16155b610e92576040517f08c379a0000000000000000000000000000000000000000000000000000000008152600401610e899061187f565b60405180910390fd5b60018160060160016101000a81548160ff0219169083151502179055508060000160009054906101000a900473ffffffffffffffffffffffffffffffffffffffff1673ffffffffffffffffffffffffffffffffffffffff167f178c4297d9f988537685e87d1e02ec1c569bfdbefa46251af88ca3b560f6d12a83604051610f1991906118ff565b60405180910390a25050565b600260003373ffffffffffffffffffffffffffffffffffffffff1673ffffffffffffffffffffffffffffffffffffffff16815260200190815260200160002060009054906101000a900460ff16610fb1576040517f08c379a0000000000000000000000000000000000000000000000000000000008152600401610fa8906118bf565b60405180910390fd5b80600160003373ffffffffffffffffffffffffffffffffffffffff1673ffffffffffffffffffffffffffffffffffffffff168152602001908152602001600020541015611033576040517f08c379a000000000000000000000000000000000000000000000000000000000815260040161102a9061185f565b60405180910390fd5b80600160003373ffffffffffffffffffffffffffffffffffffffff1673ffffffffffffffffffffffffffffffffffffffff168152602001908152602001600020600082825461108291906119ed565b925050819055503373ffffffffffffffffffffffffffffffffffffffff166108fc829081150290604051600060405180830381858888f193505050501580156110cf573d6000803e3d6000fd5b503373ffffffffffffffffffffffffffffffffffffffff167fc7c584210b2fa85fc8e513f4ddc0541177930038af1429a7c5fa1a5933d983cd8260405161111691906118ff565b60405180910390a250565b6003818154811061113157600080fd5b90600052602060002090600802016000915090508060000160009054906101000a900473ffffffffffffffffffffffffffffffffffffffff169080600101805461117a90611aab565b80601f01602080910402602001604051908101604052809291908181526020018280546111a690611aab565b80156111f35780601f106111c8576101008083540402835291602001916111f3565b820191906000526020600020905b8154815290600101906020018083116111d657829003601f168201915b50505050509080600201805461120890611aab565b80601f016020809104026020016040519081016040528092919081815260200182805461123490611aab565b80156112815780601f1061125657610100808354040283529160200191611281565b820191906000526020600020905b81548152906001019060200180831161126457829003601f168201915b50505050509080600301549080600401805461129c90611aab565b80601f01602080910402602001604051908101604052809291908181526020018280546112c890611aab565b80156113155780601f106112ea57610100808354040283529160200191611315565b820191906000526020600020905b8154815290600101906020018083116112f857829003601f168201915b5050505050908060050154908060060160009054906101000a900460ff16908060060160019054906101000a900460ff16908060070154905089565b60008054906101000a900473ffffffffffffffffffffffffffffffffffffffff1681565b82805461138190611aab565b90600052602060002090601f0160209004810192826113a357600085556113ea565b82601f106113bc57805160ff19168380011785556113ea565b828001600101855582156113ea579182015b828111156113e95782518255916020019190600101906113ce565b5b5090506113f791906113fb565b5090565b5b808211156114145760008160009055506001016113fc565b5090565b600061142b6114268461194b565b61191a565b90508281526020810184848401111561144357600080fd5b61144e848285611a69565b509392505050565b60008135905061146581611bc4565b92915050565b600082601f83011261147c57600080fd5b813561148c848260208601611418565b91505092915050565b6000813590506114a481611bdb565b92915050565b6000602082840312156114bc57600080fd5b60006114ca84828501611456565b91505092915050565b600080600080600060a086880312156114eb57600080fd5b600086013567ffffffffffffffff81111561150557600080fd5b6115118882890161146b565b955050602086013567ffffffffffffffff81111561152e57600080fd5b61153a8882890161146b565b945050604061154b88828901611495565b935050606086013567ffffffffffffffff81111561156857600080fd5b6115748882890161146b565b925050608061158588828901611495565b9150509295509295909350565b6000602082840312156115a457600080fd5b60006115b284828501611495565b91505092915050565b6115c481611a21565b82525050565b6115d381611a33565b82525050565b60006115e48261197b565b6115ee8185611986565b93506115fe818560208601611a78565b61160781611bb3565b840191505092915050565b600061161f602083611986565b91507f496e73756666696369656e74207363686f6c6172736869702062616c616e63656000830152602082019050919050565b600061165f601d83611986565b91507f4170706c69636174696f6e20616c72656164792070726f6365737365640000006000830152602082019050919050565b600061169f602283611986565b91507f4f6e6c792061646d696e2063616e20706572666f726d2074686973206163746960008301527f6f6e0000000000000000000000000000000000000000000000000000000000006020830152604082019050919050565b6000611705601b83611986565b91507f4e6f742061207363686f6c61727368697020726563697069656e7400000000006000830152602082019050919050565b6000611745601683611986565b91507f496e76616c6964206170706c69636174696f6e204944000000000000000000006000830152602082019050919050565b61178181611a5f565b82525050565b600060208201905061179c60008301846115bb565b92915050565b6000610120820190506117b8600083018c6115bb565b81810360208301526117ca818b6115d9565b905081810360408301526117de818a6115d9565b90506117ed6060830189611778565b81810360808301526117ff81886115d9565b905061180e60a0830187611778565b61181b60c08301866115ca565b61182860e08301856115ca565b611836610100830184611778565b9a9950505050505050505050565b600060208201905061185960008301846115ca565b92915050565b6000602082019050818103600083015261187881611612565b9050919050565b6000602082019050818103600083015261189881611652565b9050919050565b600060208201905081810360008301526118b881611692565b9050919050565b600060208201905081810360008301526118d8816116f8565b9050919050565b600060208201905081810360008301526118f881611738565b9050919050565b60006020820190506119146000830184611778565b92915050565b6000604051905081810181811067ffffffffffffffff8211171561194157611940611b84565b5b8060405250919050565b600067ffffffffffffffff82111561196657611965611b84565b5b601f19601f8301169050602081019050919050565b600081519050919050565b600082825260208201905092915050565b60006119a282611a5f565b91506119ad83611a5f565b9250827fffffffffffffffffffffffffffffffffffffffffffffffffffffffffffffffff038211156119e2576119e1611b26565b5b828201905092915050565b60006119f882611a5f565b9150611a0383611a5f565b925082821015611a1657611a15611b26565b5b828203905092915050565b6000611a2c82611a3f565b9050919050565b60008115159050919050565b600073ffffffffffffffffffffffffffffffffffffffff82169050919050565b6000819050919050565b82818337600083830152505050565b60005b83811015611a96578082015181840152602081019050611a7b565b83811115611aa5576000848401525b50505050565b60006002820490506001821680611ac357607f821691505b60208210811415611ad757611ad6611b55565b5b50919050565b6000611ae882611a5f565b91507fffffffffffffffffffffffffffffffffffffffffffffffffffffffffffffffff821415611b1b57611b1a611b26565b5b600182019050919050565b7f4e487b7100000000000000000000000000000000000000000000000000000000600052601160045260246000fd5b7f4e487b7100000000000000000000000000000000000000000000000000000000600052602260045260246000fd5b7f4e487b7100000000000000000000000000000000000000000000000000000000600052604160045260246000fd5b6000601f19601f8301169050919050565b611bcd81611a21565b8114611bd857600080fd5b50565b611be481611a5f565b8114611bef57600080fd5b5056fea2646970667358221220690e099a2a0537a0ca251552cbf9c3608a473205fcbd08788c2a9a48ded89a6c64736f6c63430008000033",
  "immutableReferences": {},
  "source": "// SPDX-License-Identifier: MIT\r\npragma solidity ^0.8.0;\r\n\r\ncontract Scholarship {\r\n    address public admin;\r\n    mapping(address => uint256) public scholarshipBalances;\r\n    mapping(address => bool) public scholarshipRecipients;\r\n    \r\n    struct Application {\r\n        address student;\r\n        string name;\r\n        string department;\r\n        uint256 year;\r\n        string reason;\r\n        uint256 amount;\r\n        bool isApproved;\r\n        bool isRejected;\r\n        uint256 timestamp;\r\n    }\r\n    \r\n    Application[] public applications;\r\n    mapping(address => uint256) public applicationCount;\r\n    \r\n    event ScholarshipGranted(address indexed student, uint256 amount);\r\n    event ScholarshipWithdrawn(address indexed student, uint256 amount);\r\n    event ApplicationSubmitted(address indexed student, uint256 applicationId);\r\n    event ApplicationApproved(address indexed student, uint256 applicationId);\r\n    event ApplicationRejected(address indexed student, uint256 applicationId);\r\n    \r\n    constructor() {\r\n        admin = msg.sender;\r\n    }\r\n    \r\n    modifier onlyAdmin() {\r\n        require(msg.sender == admin, \"Only admin can perform this action\");\r\n        _;\r\n    }\r\n    \r\n    function submitApplication(\r\n        string memory name,\r\n        string memory department,\r\n        uint256 year,\r\n        string memory reason,\r\n        uint256 amount\r\n    ) public {\r\n        uint256 applicationId = applications.length;\r\n        applications.push(Application({\r\n            student: msg.sender,\r\n            name: name,\r\n            department: department,\r\n            year: year,\r\n            reason: reason,\r\n            amount: amount,\r\n            isApproved: false,\r\n            isRejected: false,\r\n            timestamp: block.timestamp\r\n        }));\r\n        applicationCount[msg.sender]++;\r\n        emit ApplicationSubmitted(msg.sender, applicationId);\r\n    }\r\n    \r\n    function approveApplication(uint256 applicationId) public onlyAdmin {\r\n        require(applicationId < applications.length, \"Invalid application ID\");\r\n        Application storage application = applications[applicationId];\r\n        require(!application.isApproved && !application.isRejected, \"Application already processed\");\r\n        \r\n        application.isApproved = true;\r\n        scholarshipBalances[application.student] += application.amount;\r\n        scholarshipRecipients[application.student] = true;\r\n        \r\n        emit ApplicationApproved(application.student, applicationId);\r\n        emit ScholarshipGranted(application.student, application.amount);\r\n    }\r\n    \r\n    function rejectApplication(uint256 applicationId) public onlyAdmin {\r\n        require(applicationId < applications.length, \"Invalid application ID\");\r\n        Application storage application = applications[applicationId];\r\n        require(!application.isApproved && !application.isRejected, \"Application already processed\");\r\n        \r\n        application.isRejected = true;\r\n        emit ApplicationRejected(application.student, applicationId);\r\n    }\r\n    \r\n    function getApplication(uint256 applicationId) public view returns (\r\n        address student,\r\n        string memory name,\r\n        string memory department,\r\n        uint256 year,\r\n        string memory reason,\r\n        uint256 amount,\r\n        bool isApproved,\r\n        bool isRejected,\r\n        uint256 timestamp\r\n    ) {\r\n        require(applicationId < applications.length, \"Invalid application ID\");\r\n        Application memory application = applications[applicationId];\r\n        return (\r\n            application.student,\r\n            application.name,\r\n            application.department,\r\n            application.year,\r\n            application.reason,\r\n            application.amount,\r\n            application.isApproved,\r\n            application.isRejected,\r\n            application.timestamp\r\n        );\r\n    }\r\n    \r\n    function getApplicationsCount() public view returns (uint256) {\r\n        return applications.length;\r\n    }\r\n    \r\n    function withdrawScholarship(uint256 amount) public {\r\n        require(scholarshipRecipients[msg.sender], \"Not a scholarship recipient\");\r\n        require(scholarshipBalances[msg.sender] >= amount, \"Insufficient scholarship balance\");\r\n        \r\n        scholarshipBalances[msg.sender] -= amount;\r\n        payable(msg.sender).transfer(amount);\r\n        emit ScholarshipWithdrawn(msg.sender, amount);\r\n    }\r\n    \r\n    function getScholarshipBalance(address student) public view returns (uint256) {\r\n        return scholarshipBalances[student];\r\n    }\r\n    \r\n    function isScholarshipRecipient(address student) public view returns (bool) {\r\n        return scholarshipRecipients[student];\r\n    }\r\n} ",
  "sourcePath": "C:\\Users\\Hildeg\\Desktop\\bolt frontend\\project\\blockchain\\contracts\\Scholarship.sol",
  "compiler": {
    "name": "solc",
    "version": "0.8.0+commit.c7dfd78e.Emscripten.clang"
  },
  "schemaVersion": "3.4.16",
  "updatedAt": "2025-04-24T05:11:11.328Z",
  "networkType": "ethereum",
  "devdoc": {
    "kind": "dev",
    "methods": {},
    "version": 1
  },
  "userdoc": {
    "kind": "user",
    "methods": {},
    "version": 1
  }
}