{
  "_format": "hh-sol-artifact-1",
  "contractName": "StudentRegistry",
  "sourceName": "contracts/StudentRegistry.sol",
  "abi": [
    {
      "inputs": [],
      "stateMutability": "nonpayable",
      "type": "constructor"
    },
    {
      "anonymous": false,
      "inputs": [
        {
          "indexed": true,
          "internalType": "address",
          "name": "studentAddress",
          "type": "address"
        },
        {
          "indexed": false,
          "internalType": "string",
          "name": "name",
          "type": "string"
        },
        {
          "indexed": false,
          "internalType": "string",
          "name": "rollNo",
          "type": "string"
        },
        {
          "indexed": false,
          "internalType": "string",
          "name": "department",
          "type": "string"
        }
      ],
      "name": "StudentRegistered",
      "type": "event"
    },
    {
      "inputs": [],
      "name": "admin",
      "outputs": [
        {
          "internalType": "address",
          "name": "",
          "type": "address"
        }
      ],
      "stateMutability": "view",
      "type": "function"
    },
    {
      "inputs": [
        {
          "internalType": "address",
          "name": "studentAddress",
          "type": "address"
        }
      ],
      "name": "getStudent",
      "outputs": [
        {
          "internalType": "string",
          "name": "name",
          "type": "string"
        },
        {
          "internalType": "string",
          "name": "rollNo",
          "type": "string"
        },
        {
          "internalType": "string",
          "name": "department",
          "type": "string"
        },
        {
          "internalType": "string",
          "name": "username",
          "type": "string"
        },
        {
          "internalType": "bool",
          "name": "isRegistered",
          "type": "bool"
        }
      ],
      "stateMutability": "view",
      "type": "function"
    },
    {
      "inputs": [
        {
          "internalType": "string",
          "name": "",
          "type": "string"
        }
      ],
      "name": "isRollNoTaken",
      "outputs": [
        {
          "internalType": "bool",
          "name": "",
          "type": "bool"
        }
      ],
      "stateMutability": "view",
      "type": "function"
    },
    {
      "inputs": [
        {
          "internalType": "address",
          "name": "",
          "type": "address"
        }
      ],
      "name": "isStudent",
      "outputs": [
        {
          "internalType": "bool",
          "name": "",
          "type": "bool"
        }
      ],
      "stateMutability": "view",
      "type": "function"
    },
    {
      "inputs": [
        {
          "internalType": "string",
          "name": "",
          "type": "string"
        }
      ],
      "name": "isUsernameTaken",
      "outputs": [
        {
          "internalType": "bool",
          "name": "",
          "type": "bool"
        }
      ],
      "stateMutability": "view",
      "type": "function"
    },
    {
      "inputs": [
        {
          "internalType": "address",
          "name": "studentAddress",
          "type": "address"
        },
        {
          "internalType": "string",
          "name": "name",
          "type": "string"
        },
        {
          "internalType": "string",
          "name": "rollNo",
          "type": "string"
        },
        {
          "internalType": "string",
          "name": "department",
          "type": "string"
        },
        {
          "internalType": "string",
          "name": "username",
          "type": "string"
        },
        {
          "internalType": "string",
          "name": "password",
          "type": "string"
        }
      ],
      "name": "registerStudent",
      "outputs": [],
      "stateMutability": "nonpayable",
      "type": "function"
    },
    {
      "inputs": [
        {
          "internalType": "address",
          "name": "",
          "type": "address"
        }
      ],
      "name": "students",
      "outputs": [
        {
          "internalType": "string",
          "name": "name",
          "type": "string"
        },
        {
          "internalType": "string",
          "name": "rollNo",
          "type": "string"
        },
        {
          "internalType": "string",
          "name": "department",
          "type": "string"
        },
        {
          "internalType": "string",
          "name": "username",
          "type": "string"
        },
        {
          "internalType": "string",
          "name": "password",
          "type": "string"
        },
        {
          "internalType": "bool",
          "name": "isRegistered",
          "type": "bool"
        }
      ],
      "stateMutability": "view",
      "type": "function"
    }
  ],
  "bytecode": "0x608060405234801561001057600080fd5b50336000806101000a81548173ffffffffffffffffffffffffffffffffffffffff021916908373ffffffffffffffffffffffffffffffffffffffff160217905550611afc806100606000396000f3fe608060405234801561001057600080fd5b506004361061007d5760003560e01c806392ede6d01161005b57806392ede6d014610116578063a6c807a914610132578063d93f783314610167578063f851a440146101975761007d565b8063176c5919146100825780636b7b44d7146100b257806382f7d392146100e6575b600080fd5b61009c60048036038101906100979190610f8e565b6101b5565b6040516100a99190610ff2565b60405180910390f35b6100cc60048036038101906100c7919061106b565b6101eb565b6040516100dd959493929190611117565b60405180910390f35b61010060048036038101906100fb919061106b565b610562565b60405161010d9190610ff2565b60405180910390f35b610130600480360381019061012b9190611186565b610582565b005b61014c6004803603810190610147919061106b565b610ae9565b60405161015e9695949392919061129f565b60405180910390f35b610181600480360381019061017c9190610f8e565b610dda565b60405161018e9190610ff2565b60405180910390f35b61019f610e10565b6040516101ac9190611332565b60405180910390f35b6002818051602081018201805184825260208301602085012081835280955050505050506000915054906101000a900460ff1681565b606080606080600080600160008873ffffffffffffffffffffffffffffffffffffffff1673ffffffffffffffffffffffffffffffffffffffff1681526020019081526020016000206040518060c001604052908160008201805461024e9061137c565b80601f016020809104026020016040519081016040528092919081815260200182805461027a9061137c565b80156102c75780601f1061029c576101008083540402835291602001916102c7565b820191906000526020600020905b8154815290600101906020018083116102aa57829003601f168201915b505050505081526020016001820180546102e09061137c565b80601f016020809104026020016040519081016040528092919081815260200182805461030c9061137c565b80156103595780601f1061032e57610100808354040283529160200191610359565b820191906000526020600020905b81548152906001019060200180831161033c57829003601f168201915b505050505081526020016002820180546103729061137c565b80601f016020809104026020016040519081016040528092919081815260200182805461039e9061137c565b80156103eb5780601f106103c0576101008083540402835291602001916103eb565b820191906000526020600020905b8154815290600101906020018083116103ce57829003601f168201915b505050505081526020016003820180546104049061137c565b80601f01602080910402602001604051908101604052809291908181526020018280546104309061137c565b801561047d5780601f106104525761010080835404028352916020019161047d565b820191906000526020600020905b81548152906001019060200180831161046057829003601f168201915b505050505081526020016004820180546104969061137c565b80601f01602080910402602001604051908101604052809291908181526020018280546104c29061137c565b801561050f5780601f106104e45761010080835404028352916020019161050f565b820191906000526020600020905b8154815290600101906020018083116104f257829003601f168201915b505050505081526020016005820160009054906101000a900460ff161515151581525050905080600001518160200151826040015183606001518460a00151955095509550955095505091939590929450565b60046020528060005260406000206000915054906101000a900460ff1681565b60008054906101000a900473ffffffffffffffffffffffffffffffffffffffff1673ffffffffffffffffffffffffffffffffffffffff163373ffffffffffffffffffffffffffffffffffffffff1614610610576040517f08c379a00000000000000000000000000000000000000000000000000000000081526004016106079061141f565b60405180910390fd5b600460008773ffffffffffffffffffffffffffffffffffffffff1673ffffffffffffffffffffffffffffffffffffffff16815260200190815260200160002060009054906101000a900460ff161561069d576040517f08c379a00000000000000000000000000000000000000000000000000000000081526004016106949061148b565b60405180910390fd5b6002826040516106ad91906114e7565b908152602001604051809103902060009054906101000a900460ff1615610709576040517f08c379a00000000000000000000000000000000000000000000000000000000081526004016107009061154a565b60405180910390fd5b60038460405161071991906114e7565b908152602001604051809103902060009054906101000a900460ff1615610775576040517f08c379a000000000000000000000000000000000000000000000000000000000815260040161076c906115b6565b60405180910390fd5b60008551116107b9576040517f08c379a00000000000000000000000000000000000000000000000000000000081526004016107b090611622565b60405180910390fd5b60008451116107fd576040517f08c379a00000000000000000000000000000000000000000000000000000000081526004016107f49061168e565b60405180910390fd5b6000835111610841576040517f08c379a0000000000000000000000000000000000000000000000000000000008152600401610838906116fa565b60405180910390fd5b6000825111610885576040517f08c379a000000000000000000000000000000000000000000000000000000000815260040161087c90611766565b60405180910390fd5b60008151116108c9576040517f08c379a00000000000000000000000000000000000000000000000000000000081526004016108c0906117d2565b60405180910390fd5b6040518060c0016040528086815260200185815260200184815260200183815260200182815260200160011515815250600160008873ffffffffffffffffffffffffffffffffffffffff1673ffffffffffffffffffffffffffffffffffffffff168152602001908152602001600020600082015181600001908161094d91906119a8565b50602082015181600101908161096391906119a8565b50604082015181600201908161097991906119a8565b50606082015181600301908161098f91906119a8565b5060808201518160040190816109a591906119a8565b5060a08201518160050160006101000a81548160ff0219169083151502179055509050506001600460008873ffffffffffffffffffffffffffffffffffffffff1673ffffffffffffffffffffffffffffffffffffffff16815260200190815260200160002060006101000a81548160ff0219169083151502179055506001600283604051610a3391906114e7565b908152602001604051809103902060006101000a81548160ff0219169083151502179055506001600385604051610a6a91906114e7565b908152602001604051809103902060006101000a81548160ff0219169083151502179055508573ffffffffffffffffffffffffffffffffffffffff167f8823cc416ad0a1d2daf55ad9ad5f416ddf37a59230f0197f7c4fb404c903cd0b868686604051610ad993929190611a7a565b60405180910390a2505050505050565b6001602052806000526040600020600091509050806000018054610b0c9061137c565b80601f0160208091040260200160405190810160405280929190818152602001828054610b389061137c565b8015610b855780601f10610b5a57610100808354040283529160200191610b85565b820191906000526020600020905b815481529060010190602001808311610b6857829003601f168201915b505050505090806001018054610b9a9061137c565b80601f0160208091040260200160405190810160405280929190818152602001828054610bc69061137c565b8015610c135780601f10610be857610100808354040283529160200191610c13565b820191906000526020600020905b815481529060010190602001808311610bf657829003601f168201915b505050505090806002018054610c289061137c565b80601f0160208091040260200160405190810160405280929190818152602001828054610c549061137c565b8015610ca15780601f10610c7657610100808354040283529160200191610ca1565b820191906000526020600020905b815481529060010190602001808311610c8457829003601f168201915b505050505090806003018054610cb69061137c565b80601f0160208091040260200160405190810160405280929190818152602001828054610ce29061137c565b8015610d2f5780601f10610d0457610100808354040283529160200191610d2f565b820191906000526020600020905b815481529060010190602001808311610d1257829003601f168201915b505050505090806004018054610d449061137c565b80601f0160208091040260200160405190810160405280929190818152602001828054610d709061137c565b8015610dbd5780601f10610d9257610100808354040283529160200191610dbd565b820191906000526020600020905b815481529060010190602001808311610da057829003601f168201915b5050505050908060050160009054906101000a900460ff16905086565b6003818051602081018201805184825260208301602085012081835280955050505050506000915054906101000a900460ff1681565b60008054906101000a900473ffffffffffffffffffffffffffffffffffffffff1681565b6000604051905090565b600080fd5b600080fd5b600080fd5b600080fd5b6000601f19601f8301169050919050565b7f4e487b7100000000000000000000000000000000000000000000000000000000600052604160045260246000fd5b610e9b82610e52565b810181811067ffffffffffffffff82111715610eba57610eb9610e63565b5b80604052505050565b6000610ecd610e34565b9050610ed98282610e92565b919050565b600067ffffffffffffffff821115610ef957610ef8610e63565b5b610f0282610e52565b9050602081019050919050565b82818337600083830152505050565b6000610f31610f2c84610ede565b610ec3565b905082815260208101848484011115610f4d57610f4c610e4d565b5b610f58848285610f0f565b509392505050565b600082601f830112610f7557610f74610e48565b5b8135610f85848260208601610f1e565b91505092915050565b600060208284031215610fa457610fa3610e3e565b5b600082013567ffffffffffffffff811115610fc257610fc1610e43565b5b610fce84828501610f60565b91505092915050565b60008115159050919050565b610fec81610fd7565b82525050565b60006020820190506110076000830184610fe3565b92915050565b600073ffffffffffffffffffffffffffffffffffffffff82169050919050565b60006110388261100d565b9050919050565b6110488161102d565b811461105357600080fd5b50565b6000813590506110658161103f565b92915050565b60006020828403121561108157611080610e3e565b5b600061108f84828501611056565b91505092915050565b600081519050919050565b600082825260208201905092915050565b60005b838110156110d25780820151818401526020810190506110b7565b60008484015250505050565b60006110e982611098565b6110f381856110a3565b93506111038185602086016110b4565b61110c81610e52565b840191505092915050565b600060a082019050818103600083015261113181886110de565b9050818103602083015261114581876110de565b9050818103604083015261115981866110de565b9050818103606083015261116d81856110de565b905061117c6080830184610fe3565b9695505050505050565b60008060008060008060c087890312156111a3576111a2610e3e565b5b60006111b189828a01611056565b965050602087013567ffffffffffffffff8111156111d2576111d1610e43565b5b6111de89828a01610f60565b955050604087013567ffffffffffffffff8111156111ff576111fe610e43565b5b61120b89828a01610f60565b945050606087013567ffffffffffffffff81111561122c5761122b610e43565b5b61123889828a01610f60565b935050608087013567ffffffffffffffff81111561125957611258610e43565b5b61126589828a01610f60565b92505060a087013567ffffffffffffffff81111561128657611285610e43565b5b61129289828a01610f60565b9150509295509295509295565b600060c08201905081810360008301526112b981896110de565b905081810360208301526112cd81886110de565b905081810360408301526112e181876110de565b905081810360608301526112f581866110de565b9050818103608083015261130981856110de565b905061131860a0830184610fe3565b979650505050505050565b61132c8161102d565b82525050565b60006020820190506113476000830184611323565b92915050565b7f4e487b7100000000000000000000000000000000000000000000000000000000600052602260045260246000fd5b6000600282049050600182168061139457607f821691505b6020821081036113a7576113a661134d565b5b50919050565b7f4f6e6c792061646d696e2063616e20706572666f726d2074686973206163746960008201527f6f6e000000000000000000000000000000000000000000000000000000000000602082015250565b60006114096022836110a3565b9150611414826113ad565b604082019050919050565b60006020820190508181036000830152611438816113fc565b9050919050565b7f53747564656e7420616c72656164792072656769737465726564000000000000600082015250565b6000611475601a836110a3565b91506114808261143f565b602082019050919050565b600060208201905081810360008301526114a481611468565b9050919050565b600081905092915050565b60006114c182611098565b6114cb81856114ab565b93506114db8185602086016110b4565b80840191505092915050565b60006114f382846114b6565b915081905092915050565b7f557365726e616d6520616c72656164792074616b656e00000000000000000000600082015250565b60006115346016836110a3565b915061153f826114fe565b602082019050919050565b6000602082019050818103600083015261156381611527565b9050919050565b7f526f6c6c206e756d62657220616c72656164792074616b656e00000000000000600082015250565b60006115a06019836110a3565b91506115ab8261156a565b602082019050919050565b600060208201905081810360008301526115cf81611593565b9050919050565b7f4e616d652063616e6e6f7420626520656d707479000000000000000000000000600082015250565b600061160c6014836110a3565b9150611617826115d6565b602082019050919050565b6000602082019050818103600083015261163b816115ff565b9050919050565b7f526f6c6c206e756d6265722063616e6e6f7420626520656d7074790000000000600082015250565b6000611678601b836110a3565b915061168382611642565b602082019050919050565b600060208201905081810360008301526116a78161166b565b9050919050565b7f4465706172746d656e742063616e6e6f7420626520656d707479000000000000600082015250565b60006116e4601a836110a3565b91506116ef826116ae565b602082019050919050565b60006020820190508181036000830152611713816116d7565b9050919050565b7f557365726e616d652063616e6e6f7420626520656d7074790000000000000000600082015250565b60006117506018836110a3565b915061175b8261171a565b602082019050919050565b6000602082019050818103600083015261177f81611743565b9050919050565b7f50617373776f72642063616e6e6f7420626520656d7074790000000000000000600082015250565b60006117bc6018836110a3565b91506117c782611786565b602082019050919050565b600060208201905081810360008301526117eb816117af565b9050919050565b60008190508160005260206000209050919050565b60006020601f8301049050919050565b600082821b905092915050565b6000600883026118547fffffffffffffffffffffffffffffffffffffffffffffffffffffffffffffffff82611817565b61185e8683611817565b95508019841693508086168417925050509392505050565b6000819050919050565b6000819050919050565b60006118a56118a061189b84611876565b611880565b611876565b9050919050565b6000819050919050565b6118bf8361188a565b6118d36118cb826118ac565b848454611824565b825550505050565b600090565b6118e86118db565b6118f38184846118b6565b505050565b5b818110156119175761190c6000826118e0565b6001810190506118f9565b5050565b601f82111561195c5761192d816117f2565b61193684611807565b81016020851015611945578190505b61195961195185611807565b8301826118f8565b50505b505050565b600082821c905092915050565b600061197f60001984600802611961565b1980831691505092915050565b6000611998838361196e565b9150826002028217905092915050565b6119b182611098565b67ffffffffffffffff8111156119ca576119c9610e63565b5b6119d4825461137c565b6119df82828561191b565b600060209050601f831160018114611a125760008415611a00578287015190505b611a0a858261198c565b865550611a72565b601f198416611a20866117f2565b60005b82811015611a4857848901518255600182019150602085019450602081019050611a23565b86831015611a655784890151611a61601f89168261196e565b8355505b6001600288020188555050505b505050505050565b60006060820190508181036000830152611a9481866110de565b90508181036020830152611aa881856110de565b90508181036040830152611abc81846110de565b905094935050505056fea2646970667358221220c567f88a49d8232a439799f5291d94b745096fa9b334b0c6bb38ca283df7aa9064736f6c63430008140033",
  "linkReferences": {},
  "deployedLinkReferences": {}
}