{
  "_format": "hh-sol-artifact-1",
  "contractName": "University",
  "sourceName": "src/contracts/University.sol",
  "abi": [
    {
      "inputs": [],
      "stateMutability": "nonpayable",
      "type": "constructor"
    },
    {
      "anonymous": false,
      "inputs": [
        {
          "indexed": true,
          "internalType": "address",
          "name": "employee",
          "type": "address"
        },
        {
          "indexed": false,
          "internalType": "string",
          "name": "role",
          "type": "string"
        }
      ],
      "name": "EmployeeAdded",
      "type": "event"
    },
    {
      "anonymous": false,
      "inputs": [
        {
          "indexed": true,
          "internalType": "address",
          "name": "from",
          "type": "address"
        },
        {
          "indexed": true,
          "internalType": "address",
          "name": "to",
          "type": "address"
        },
        {
          "indexed": false,
          "internalType": "uint256",
          "name": "amount",
          "type": "uint256"
        },
        {
          "indexed": false,
          "internalType": "string",
          "name": "description",
          "type": "string"
        }
      ],
      "name": "FeePaid",
      "type": "event"
    },
    {
      "anonymous": false,
      "inputs": [
        {
          "indexed": true,
          "internalType": "address",
          "name": "employee",
          "type": "address"
        },
        {
          "indexed": false,
          "internalType": "uint256",
          "name": "amount",
          "type": "uint256"
        },
        {
          "indexed": false,
          "internalType": "string",
          "name": "description",
          "type": "string"
        }
      ],
      "name": "SalaryPaid",
      "type": "event"
    },
    {
      "anonymous": false,
      "inputs": [
        {
          "indexed": true,
          "internalType": "address",
          "name": "student",
          "type": "address"
        },
        {
          "indexed": false,
          "internalType": "string",
          "name": "name",
          "type": "string"
        },
        {
          "indexed": false,
          "internalType": "string",
          "name": "department",
          "type": "string"
        },
        {
          "indexed": false,
          "internalType": "uint256",
          "name": "year",
          "type": "uint256"
        }
      ],
      "name": "StudentRegistered",
      "type": "event"
    },
    {
      "inputs": [
        {
          "internalType": "address",
          "name": "employeeAddress",
          "type": "address"
        },
        {
          "internalType": "string",
          "name": "role",
          "type": "string"
        }
      ],
      "name": "addEmployee",
      "outputs": [],
      "stateMutability": "nonpayable",
      "type": "function"
    },
    {
      "inputs": [],
      "name": "admin",
      "outputs": [
        {
          "internalType": "address",
          "name": "",
          "type": "address"
        }
      ],
      "stateMutability": "view",
      "type": "function"
    },
    {
      "inputs": [],
      "name": "adminAddress",
      "outputs": [
        {
          "internalType": "address",
          "name": "",
          "type": "address"
        }
      ],
      "stateMutability": "view",
      "type": "function"
    },
    {
      "inputs": [
        {
          "internalType": "uint256",
          "name": "index",
          "type": "uint256"
        }
      ],
      "name": "getPaymentInfo",
      "outputs": [
        {
          "components": [
            {
              "internalType": "address",
              "name": "from",
              "type": "address"
            },
            {
              "internalType": "address",
              "name": "to",
              "type": "address"
            },
            {
              "internalType": "uint256",
              "name": "amount",
              "type": "uint256"
            },
            {
              "internalType": "string",
              "name": "description",
              "type": "string"
            },
            {
              "internalType": "uint256",
              "name": "timestamp",
              "type": "uint256"
            }
          ],
          "internalType": "struct University.Payment",
          "name": "",
          "type": "tuple"
        }
      ],
      "stateMutability": "view",
      "type": "function"
    },
    {
      "inputs": [
        {
          "internalType": "uint256",
          "name": "index",
          "type": "uint256"
        }
      ],
      "name": "getPayrollInfo",
      "outputs": [
        {
          "components": [
            {
              "internalType": "address",
              "name": "employee",
              "type": "address"
            },
            {
              "internalType": "uint256",
              "name": "amount",
              "type": "uint256"
            },
            {
              "internalType": "string",
              "name": "description",
              "type": "string"
            },
            {
              "internalType": "uint256",
              "name": "timestamp",
              "type": "uint256"
            },
            {
              "internalType": "bool",
              "name": "isPaid",
              "type": "bool"
            }
          ],
          "internalType": "struct University.Payroll",
          "name": "",
          "type": "tuple"
        }
      ],
      "stateMutability": "view",
      "type": "function"
    },
    {
      "inputs": [
        {
          "internalType": "address",
          "name": "studentAddress",
          "type": "address"
        }
      ],
      "name": "getStudentInfo",
      "outputs": [
        {
          "components": [
            {
              "internalType": "string",
              "name": "name",
              "type": "string"
            },
            {
              "internalType": "string",
              "name": "department",
              "type": "string"
            },
            {
              "internalType": "uint256",
              "name": "year",
              "type": "uint256"
            },
            {
              "internalType": "uint256",
              "name": "feesPaid",
              "type": "uint256"
            },
            {
              "internalType": "bool",
              "name": "isRegistered",
              "type": "bool"
            }
          ],
          "internalType": "struct University.Student",
          "name": "",
          "type": "tuple"
        }
      ],
      "stateMutability": "view",
      "type": "function"
    },
    {
      "inputs": [],
      "name": "getTotalPayments",
      "outputs": [
        {
          "internalType": "uint256",
          "name": "",
          "type": "uint256"
        }
      ],
      "stateMutability": "view",
      "type": "function"
    },
    {
      "inputs": [],
      "name": "getTotalPayrolls",
      "outputs": [
        {
          "internalType": "uint256",
          "name": "",
          "type": "uint256"
        }
      ],
      "stateMutability": "view",
      "type": "function"
    },
    {
      "inputs": [],
      "name": "getTotalStudents",
      "outputs": [
        {
          "internalType": "uint256",
          "name": "",
          "type": "uint256"
        }
      ],
      "stateMutability": "view",
      "type": "function"
    },
    {
      "inputs": [
        {
          "internalType": "address",
          "name": "",
          "type": "address"
        }
      ],
      "name": "isEmployee",
      "outputs": [
        {
          "internalType": "bool",
          "name": "",
          "type": "bool"
        }
      ],
      "stateMutability": "view",
      "type": "function"
    },
    {
      "inputs": [
        {
          "internalType": "address",
          "name": "",
          "type": "address"
        }
      ],
      "name": "isStudent",
      "outputs": [
        {
          "internalType": "bool",
          "name": "",
          "type": "bool"
        }
      ],
      "stateMutability": "view",
      "type": "function"
    },
    {
      "inputs": [
        {
          "internalType": "string",
          "name": "description",
          "type": "string"
        }
      ],
      "name": "payFee",
      "outputs": [],
      "stateMutability": "payable",
      "type": "function"
    },
    {
      "inputs": [],
      "name": "paymentCount",
      "outputs": [
        {
          "internalType": "uint256",
          "name": "",
          "type": "uint256"
        }
      ],
      "stateMutability": "view",
      "type": "function"
    },
    {
      "inputs": [
        {
          "internalType": "uint256",
          "name": "",
          "type": "uint256"
        }
      ],
      "name": "payments",
      "outputs": [
        {
          "internalType": "address",
          "name": "from",
          "type": "address"
        },
        {
          "internalType": "address",
          "name": "to",
          "type": "address"
        },
        {
          "internalType": "uint256",
          "name": "amount",
          "type": "uint256"
        },
        {
          "internalType": "string",
          "name": "description",
          "type": "string"
        },
        {
          "internalType": "uint256",
          "name": "timestamp",
          "type": "uint256"
        }
      ],
      "stateMutability": "view",
      "type": "function"
    },
    {
      "inputs": [],
      "name": "payrollCount",
      "outputs": [
        {
          "internalType": "uint256",
          "name": "",
          "type": "uint256"
        }
      ],
      "stateMutability": "view",
      "type": "function"
    },
    {
      "inputs": [
        {
          "internalType": "uint256",
          "name": "",
          "type": "uint256"
        }
      ],
      "name": "payrolls",
      "outputs": [
        {
          "internalType": "address",
          "name": "employee",
          "type": "address"
        },
        {
          "internalType": "uint256",
          "name": "amount",
          "type": "uint256"
        },
        {
          "internalType": "string",
          "name": "description",
          "type": "string"
        },
        {
          "internalType": "uint256",
          "name": "timestamp",
          "type": "uint256"
        },
        {
          "internalType": "bool",
          "name": "isPaid",
          "type": "bool"
        }
      ],
      "stateMutability": "view",
      "type": "function"
    },
    {
      "inputs": [
        {
          "internalType": "address",
          "name": "employeeAddress",
          "type": "address"
        },
        {
          "internalType": "uint256",
          "name": "amount",
          "type": "uint256"
        },
        {
          "internalType": "string",
          "name": "description",
          "type": "string"
        }
      ],
      "name": "processPayroll",
      "outputs": [],
      "stateMutability": "nonpayable",
      "type": "function"
    },
    {
      "inputs": [
        {
          "internalType": "address",
          "name": "studentAddress",
          "type": "address"
        },
        {
          "internalType": "string",
          "name": "name",
          "type": "string"
        },
        {
          "internalType": "string",
          "name": "department",
          "type": "string"
        },
        {
          "internalType": "uint256",
          "name": "year",
          "type": "uint256"
        }
      ],
      "name": "registerStudent",
      "outputs": [],
      "stateMutability": "nonpayable",
      "type": "function"
    },
    {
      "inputs": [],
      "name": "studentCount",
      "outputs": [
        {
          "internalType": "uint256",
          "name": "",
          "type": "uint256"
        }
      ],
      "stateMutability": "view",
      "type": "function"
    },
    {
      "inputs": [
        {
          "internalType": "address",
          "name": "",
          "type": "address"
        }
      ],
      "name": "students",
      "outputs": [
        {
          "internalType": "string",
          "name": "name",
          "type": "string"
        },
        {
          "internalType": "string",
          "name": "department",
          "type": "string"
        },
        {
          "internalType": "uint256",
          "name": "year",
          "type": "uint256"
        },
        {
          "internalType": "uint256",
          "name": "feesPaid",
          "type": "uint256"
        },
        {
          "internalType": "bool",
          "name": "isRegistered",
          "type": "bool"
        }
      ],
      "stateMutability": "view",
      "type": "function"
    },
    {
      "inputs": [],
      "name": "totalRevenue",
      "outputs": [
        {
          "internalType": "uint256",
          "name": "",
          "type": "uint256"
        }
      ],
      "stateMutability": "view",
      "type": "function"
    },
    {
      "stateMutability": "payable",
      "type": "receive"
    }
  ],
  "bytecode": "0x608060405273f295ae7207f345ebb93d7704bc52110bcc8a1bd1600160006101000a81548173ffffffffffffffffffffffffffffffffffffffff021916908373ffffffffffffffffffffffffffffffffffffffff16021790555034801561006557600080fd5b50336000806101000a81548173ffffffffffffffffffffffffffffffffffffffff021916908373ffffffffffffffffffffffffffffffffffffffff160217905550612af2806100b56000396000f3fe60806040526004361061012e5760003560e01c8063a502e808116100ab578063d810ff0f1161006f578063d810ff0f14610422578063e517a1721461045f578063e581f9ee1461048a578063ea66543f146104b5578063f851a440146104f2578063fc6f94681461051d57610135565b8063a502e80814610348578063a6c807a914610371578063ad5aa2b5146103b2578063b23bf443146103db578063bf2d9e0b146103f757610135565b80634b82caec116100f25780634b82caec146102215780635632b1fa1461025e578063708f29a61461029f57806382f7d392146102ca57806387d817891461030757610135565b80630937e68a1461013a5780630a8837901461016557806320a846eb1461019057806328bcb51a146101b95780633c77a006146101e457610135565b3661013557005b600080fd5b34801561014657600080fd5b5061014f610548565b60405161015c9190611ab0565b60405180910390f35b34801561017157600080fd5b5061017a61054e565b6040516101879190611ab0565b60405180910390f35b34801561019c57600080fd5b506101b760048036038101906101b29190611caf565b610554565b005b3480156101c557600080fd5b506101ce610804565b6040516101db9190611ab0565b60405180910390f35b3480156101f057600080fd5b5061020b60048036038101906102069190611d4e565b61080e565b6040516102189190611ea9565b60405180910390f35b34801561022d57600080fd5b5061024860048036038101906102439190611ecb565b610952565b6040516102559190611f75565b60405180910390f35b34801561026a57600080fd5b5061028560048036038101906102809190611d4e565b610afe565b604051610296959493929190611fff565b60405180910390f35b3480156102ab57600080fd5b506102b4610be9565b6040516102c19190611ab0565b60405180910390f35b3480156102d657600080fd5b506102f160048036038101906102ec9190611ecb565b610bf3565b6040516102fe9190612059565b60405180910390f35b34801561031357600080fd5b5061032e60048036038101906103299190611d4e565b610c13565b60405161033f959493929190612074565b60405180910390f35b34801561035457600080fd5b5061036f600480360381019061036a91906120ce565b610d11565b005b34801561037d57600080fd5b5061039860048036038101906103939190611ecb565b610ed6565b6040516103a995949392919061212a565b60405180910390f35b3480156103be57600080fd5b506103d960048036038101906103d4919061218b565b611029565b005b6103f560048036038101906103f091906121fa565b6113cc565b005b34801561040357600080fd5b5061040c6117c5565b6040516104199190611ab0565b60405180910390f35b34801561042e57600080fd5b5061044960048036038101906104449190611d4e565b6117cb565b60405161045691906122b9565b60405180910390f35b34801561046b57600080fd5b5061047461194a565b6040516104819190611ab0565b60405180910390f35b34801561049657600080fd5b5061049f611954565b6040516104ac9190611ab0565b60405180910390f35b3480156104c157600080fd5b506104dc60048036038101906104d79190611ecb565b61195a565b6040516104e99190612059565b60405180910390f35b3480156104fe57600080fd5b5061050761197a565b60405161051491906122db565b60405180910390f35b34801561052957600080fd5b5061053261199e565b60405161053f91906122db565b60405180910390f35b60035481565b60055481565b60008054906101000a900473ffffffffffffffffffffffffffffffffffffffff1673ffffffffffffffffffffffffffffffffffffffff163373ffffffffffffffffffffffffffffffffffffffff16146105e2576040517f08c379a00000000000000000000000000000000000000000000000000000000081526004016105d990612342565b60405180910390fd5b600960008573ffffffffffffffffffffffffffffffffffffffff1673ffffffffffffffffffffffffffffffffffffffff16815260200190815260200160002060009054906101000a900460ff161561066f576040517f08c379a0000000000000000000000000000000000000000000000000000000008152600401610666906123ae565b60405180910390fd5b6040518060a001604052808481526020018381526020018281526020016000815260200160011515815250600660008673ffffffffffffffffffffffffffffffffffffffff1673ffffffffffffffffffffffffffffffffffffffff16815260200190815260200160002060008201518160000190816106ee91906125da565b50602082015181600101908161070491906125da565b50604082015181600201556060820151816003015560808201518160040160006101000a81548160ff0219169083151502179055509050506001600960008673ffffffffffffffffffffffffffffffffffffffff1673ffffffffffffffffffffffffffffffffffffffff16815260200190815260200160002060006101000a81548160ff021916908315150217905550600460008154809291906107a7906126db565b91905055508373ffffffffffffffffffffffffffffffffffffffff167f67857a7e83f99a32bd4dba6bed796c2a6a07c0de06ef7ef5985ab49ad56e77bd8484846040516107f693929190612723565b60405180910390a250505050565b6000600454905090565b6108166119c4565b600860008381526020019081526020016000206040518060a00160405290816000820160009054906101000a900473ffffffffffffffffffffffffffffffffffffffff1673ffffffffffffffffffffffffffffffffffffffff1673ffffffffffffffffffffffffffffffffffffffff168152602001600182015481526020016002820180546108a4906123fd565b80601f01602080910402602001604051908101604052809291908181526020018280546108d0906123fd565b801561091d5780601f106108f25761010080835404028352916020019161091d565b820191906000526020600020905b81548152906001019060200180831161090057829003601f168201915b50505050508152602001600382015481526020016004820160009054906101000a900460ff1615151515815250509050919050565b61095a611a0b565b600660008373ffffffffffffffffffffffffffffffffffffffff1673ffffffffffffffffffffffffffffffffffffffff1681526020019081526020016000206040518060a00160405290816000820180546109b4906123fd565b80601f01602080910402602001604051908101604052809291908181526020018280546109e0906123fd565b8015610a2d5780601f10610a0257610100808354040283529160200191610a2d565b820191906000526020600020905b815481529060010190602001808311610a1057829003601f168201915b50505050508152602001600182018054610a46906123fd565b80601f0160208091040260200160405190810160405280929190818152602001828054610a72906123fd565b8015610abf5780601f10610a9457610100808354040283529160200191610abf565b820191906000526020600020905b815481529060010190602001808311610aa257829003601f168201915b5050505050815260200160028201548152602001600382015481526020016004820160009054906101000a900460ff1615151515815250509050919050565b60086020528060005260406000206000915090508060000160009054906101000a900473ffffffffffffffffffffffffffffffffffffffff1690806001015490806002018054610b4d906123fd565b80601f0160208091040260200160405190810160405280929190818152602001828054610b79906123fd565b8015610bc65780601f10610b9b57610100808354040283529160200191610bc6565b820191906000526020600020905b815481529060010190602001808311610ba957829003601f168201915b5050505050908060030154908060040160009054906101000a900460ff16905085565b6000600354905090565b60096020528060005260406000206000915054906101000a900460ff1681565b60076020528060005260406000206000915090508060000160009054906101000a900473ffffffffffffffffffffffffffffffffffffffff16908060010160009054906101000a900473ffffffffffffffffffffffffffffffffffffffff1690806002015490806003018054610c88906123fd565b80601f0160208091040260200160405190810160405280929190818152602001828054610cb4906123fd565b8015610d015780601f10610cd657610100808354040283529160200191610d01565b820191906000526020600020905b815481529060010190602001808311610ce457829003601f168201915b5050505050908060040154905085565b60008054906101000a900473ffffffffffffffffffffffffffffffffffffffff1673ffffffffffffffffffffffffffffffffffffffff163373ffffffffffffffffffffffffffffffffffffffff1614610d9f576040517f08c379a0000000000000000000000000000000000000000000000000000000008152600401610d9690612342565b60405180910390fd5b600a60008373ffffffffffffffffffffffffffffffffffffffff1673ffffffffffffffffffffffffffffffffffffffff16815260200190815260200160002060009054906101000a900460ff1615610e2c576040517f08c379a0000000000000000000000000000000000000000000000000000000008152600401610e23906127b4565b60405180910390fd5b6001600a60008473ffffffffffffffffffffffffffffffffffffffff1673ffffffffffffffffffffffffffffffffffffffff16815260200190815260200160002060006101000a81548160ff0219169083151502179055508173ffffffffffffffffffffffffffffffffffffffff167f88f573da530a15bcd26d991f12ed95c157a183024a775dcccd317998426c4ce482604051610eca91906127d4565b60405180910390a25050565b6006602052806000526040600020600091509050806000018054610ef9906123fd565b80601f0160208091040260200160405190810160405280929190818152602001828054610f25906123fd565b8015610f725780601f10610f4757610100808354040283529160200191610f72565b820191906000526020600020905b815481529060010190602001808311610f5557829003601f168201915b505050505090806001018054610f87906123fd565b80601f0160208091040260200160405190810160405280929190818152602001828054610fb3906123fd565b80156110005780601f10610fd557610100808354040283529160200191611000565b820191906000526020600020905b815481529060010190602001808311610fe357829003601f168201915b5050505050908060020154908060030154908060040160009054906101000a900460ff16905085565b60008054906101000a900473ffffffffffffffffffffffffffffffffffffffff1673ffffffffffffffffffffffffffffffffffffffff163373ffffffffffffffffffffffffffffffffffffffff16146110b7576040517f08c379a00000000000000000000000000000000000000000000000000000000081526004016110ae90612342565b60405180910390fd5b600a60008473ffffffffffffffffffffffffffffffffffffffff1673ffffffffffffffffffffffffffffffffffffffff16815260200190815260200160002060009054906101000a900460ff16611143576040517f08c379a000000000000000000000000000000000000000000000000000000000815260040161113a90612842565b60405180910390fd5b60008211611186576040517f08c379a000000000000000000000000000000000000000000000000000000000815260040161117d906128ae565b60405180910390fd5b814710156111c9576040517f08c379a00000000000000000000000000000000000000000000000000000000081526004016111c09061291a565b60405180910390fd5b60008373ffffffffffffffffffffffffffffffffffffffff16836040516111ef9061296b565b60006040518083038185875af1925050503d806000811461122c576040519150601f19603f3d011682016040523d82523d6000602084013e611231565b606091505b5050905080611275576040517f08c379a000000000000000000000000000000000000000000000000000000000815260040161126c906129cc565b60405180910390fd5b6040518060a001604052808573ffffffffffffffffffffffffffffffffffffffff1681526020018481526020018381526020014281526020016001151581525060086000600554815260200190815260200160002060008201518160000160006101000a81548173ffffffffffffffffffffffffffffffffffffffff021916908373ffffffffffffffffffffffffffffffffffffffff16021790555060208201518160010155604082015181600201908161133091906125da565b506060820151816003015560808201518160040160006101000a81548160ff02191690831515021790555090505060056000815480929190611371906126db565b91905055508373ffffffffffffffffffffffffffffffffffffffff167fbaa644ee5a3dea3b049e493794a69e1f6b71ff97c6e6612372a4c74a824070e284846040516113be9291906129ec565b60405180910390a250505050565b600960003373ffffffffffffffffffffffffffffffffffffffff1673ffffffffffffffffffffffffffffffffffffffff16815260200190815260200160002060009054906101000a900460ff16611458576040517f08c379a000000000000000000000000000000000000000000000000000000000815260040161144f90612a68565b60405180910390fd5b6000341161149b576040517f08c379a0000000000000000000000000000000000000000000000000000000008152600401611492906128ae565b60405180910390fd5b6000600160009054906101000a900473ffffffffffffffffffffffffffffffffffffffff1673ffffffffffffffffffffffffffffffffffffffff16346040516114e39061296b565b60006040518083038185875af1925050503d8060008114611520576040519150601f19603f3d011682016040523d82523d6000602084013e611525565b606091505b5050905080611569576040517f08c379a0000000000000000000000000000000000000000000000000000000008152600401611560906129cc565b60405180910390fd5b6040518060a001604052803373ffffffffffffffffffffffffffffffffffffffff168152602001600160009054906101000a900473ffffffffffffffffffffffffffffffffffffffff1673ffffffffffffffffffffffffffffffffffffffff1681526020013481526020018381526020014281525060076000600354815260200190815260200160002060008201518160000160006101000a81548173ffffffffffffffffffffffffffffffffffffffff021916908373ffffffffffffffffffffffffffffffffffffffff16021790555060208201518160010160006101000a81548173ffffffffffffffffffffffffffffffffffffffff021916908373ffffffffffffffffffffffffffffffffffffffff1602179055506040820151816002015560608201518160030190816116a091906125da565b506080820151816004015590505034600660003373ffffffffffffffffffffffffffffffffffffffff1673ffffffffffffffffffffffffffffffffffffffff16815260200190815260200160002060030160008282546117009190612a88565b9250508190555034600260008282546117199190612a88565b9250508190555060036000815480929190611733906126db565b9190505550600160009054906101000a900473ffffffffffffffffffffffffffffffffffffffff1673ffffffffffffffffffffffffffffffffffffffff163373ffffffffffffffffffffffffffffffffffffffff167ff0068cb4faa4d2fafd7355808264746d8341e1eecf800fce3c6f99fee9c5cffe34856040516117b99291906129ec565b60405180910390a35050565b60025481565b6117d3611a3c565b600760008381526020019081526020016000206040518060a00160405290816000820160009054906101000a900473ffffffffffffffffffffffffffffffffffffffff1673ffffffffffffffffffffffffffffffffffffffff1673ffffffffffffffffffffffffffffffffffffffff1681526020016001820160009054906101000a900473ffffffffffffffffffffffffffffffffffffffff1673ffffffffffffffffffffffffffffffffffffffff1673ffffffffffffffffffffffffffffffffffffffff168152602001600282015481526020016003820180546118b7906123fd565b80601f01602080910402602001604051908101604052809291908181526020018280546118e3906123fd565b80156119305780601f1061190557610100808354040283529160200191611930565b820191906000526020600020905b81548152906001019060200180831161191357829003601f168201915b505050505081526020016004820154815250509050919050565b6000600554905090565b60045481565b600a6020528060005260406000206000915054906101000a900460ff1681565b60008054906101000a900473ffffffffffffffffffffffffffffffffffffffff1681565b600160009054906101000a900473ffffffffffffffffffffffffffffffffffffffff1681565b6040518060a00160405280600073ffffffffffffffffffffffffffffffffffffffff1681526020016000815260200160608152602001600081526020016000151581525090565b6040518060a00160405280606081526020016060815260200160008152602001600081526020016000151581525090565b6040518060a00160405280600073ffffffffffffffffffffffffffffffffffffffff168152602001600073ffffffffffffffffffffffffffffffffffffffff1681526020016000815260200160608152602001600081525090565b6000819050919050565b611aaa81611a97565b82525050565b6000602082019050611ac56000830184611aa1565b92915050565b6000604051905090565b600080fd5b600080fd5b600073ffffffffffffffffffffffffffffffffffffffff82169050919050565b6000611b0a82611adf565b9050919050565b611b1a81611aff565b8114611b2557600080fd5b50565b600081359050611b3781611b11565b92915050565b600080fd5b600080fd5b6000601f19601f8301169050919050565b7f4e487b7100000000000000000000000000000000000000000000000000000000600052604160045260246000fd5b611b9082611b47565b810181811067ffffffffffffffff82111715611baf57611bae611b58565b5b80604052505050565b6000611bc2611acb565b9050611bce8282611b87565b919050565b600067ffffffffffffffff821115611bee57611bed611b58565b5b611bf782611b47565b9050602081019050919050565b82818337600083830152505050565b6000611c26611c2184611bd3565b611bb8565b905082815260208101848484011115611c4257611c41611b42565b5b611c4d848285611c04565b509392505050565b600082601f830112611c6a57611c69611b3d565b5b8135611c7a848260208601611c13565b91505092915050565b611c8c81611a97565b8114611c9757600080fd5b50565b600081359050611ca981611c83565b92915050565b60008060008060808587031215611cc957611cc8611ad5565b5b6000611cd787828801611b28565b945050602085013567ffffffffffffffff811115611cf857611cf7611ada565b5b611d0487828801611c55565b935050604085013567ffffffffffffffff811115611d2557611d24611ada565b5b611d3187828801611c55565b9250506060611d4287828801611c9a565b91505092959194509250565b600060208284031215611d6457611d63611ad5565b5b6000611d7284828501611c9a565b91505092915050565b611d8481611aff565b82525050565b611d9381611a97565b82525050565b600081519050919050565b600082825260208201905092915050565b60005b83811015611dd3578082015181840152602081019050611db8565b60008484015250505050565b6000611dea82611d99565b611df48185611da4565b9350611e04818560208601611db5565b611e0d81611b47565b840191505092915050565b60008115159050919050565b611e2d81611e18565b82525050565b600060a083016000830151611e4b6000860182611d7b565b506020830151611e5e6020860182611d8a565b5060408301518482036040860152611e768282611ddf565b9150506060830151611e8b6060860182611d8a565b506080830151611e9e6080860182611e24565b508091505092915050565b60006020820190508181036000830152611ec38184611e33565b905092915050565b600060208284031215611ee157611ee0611ad5565b5b6000611eef84828501611b28565b91505092915050565b600060a0830160008301518482036000860152611f158282611ddf565b91505060208301518482036020860152611f2f8282611ddf565b9150506040830151611f446040860182611d8a565b506060830151611f576060860182611d8a565b506080830151611f6a6080860182611e24565b508091505092915050565b60006020820190508181036000830152611f8f8184611ef8565b905092915050565b611fa081611aff565b82525050565b600082825260208201905092915050565b6000611fc282611d99565b611fcc8185611fa6565b9350611fdc818560208601611db5565b611fe581611b47565b840191505092915050565b611ff981611e18565b82525050565b600060a0820190506120146000830188611f97565b6120216020830187611aa1565b81810360408301526120338186611fb7565b90506120426060830185611aa1565b61204f6080830184611ff0565b9695505050505050565b600060208201905061206e6000830184611ff0565b92915050565b600060a0820190506120896000830188611f97565b6120966020830187611f97565b6120a36040830186611aa1565b81810360608301526120b58185611fb7565b90506120c46080830184611aa1565b9695505050505050565b600080604083850312156120e5576120e4611ad5565b5b60006120f385828601611b28565b925050602083013567ffffffffffffffff81111561211457612113611ada565b5b61212085828601611c55565b9150509250929050565b600060a08201905081810360008301526121448188611fb7565b905081810360208301526121588187611fb7565b90506121676040830186611aa1565b6121746060830185611aa1565b6121816080830184611ff0565b9695505050505050565b6000806000606084860312156121a4576121a3611ad5565b5b60006121b286828701611b28565b93505060206121c386828701611c9a565b925050604084013567ffffffffffffffff8111156121e4576121e3611ada565b5b6121f086828701611c55565b9150509250925092565b6000602082840312156122105761220f611ad5565b5b600082013567ffffffffffffffff81111561222e5761222d611ada565b5b61223a84828501611c55565b91505092915050565b600060a08301600083015161225b6000860182611d7b565b50602083015161226e6020860182611d7b565b5060408301516122816040860182611d8a565b50606083015184820360608601526122998282611ddf565b91505060808301516122ae6080860182611d8a565b508091505092915050565b600060208201905081810360008301526122d38184612243565b905092915050565b60006020820190506122f06000830184611f97565b92915050565b7f43616c6c6572206973206e6f7420616e2061646d696e00000000000000000000600082015250565b600061232c601683611fa6565b9150612337826122f6565b602082019050919050565b6000602082019050818103600083015261235b8161231f565b9050919050565b7f53747564656e7420616c72656164792072656769737465726564000000000000600082015250565b6000612398601a83611fa6565b91506123a382612362565b602082019050919050565b600060208201905081810360008301526123c78161238b565b9050919050565b7f4e487b7100000000000000000000000000000000000000000000000000000000600052602260045260246000fd5b6000600282049050600182168061241557607f821691505b602082108103612428576124276123ce565b5b50919050565b60008190508160005260206000209050919050565b60006020601f8301049050919050565b600082821b905092915050565b6000600883026124907fffffffffffffffffffffffffffffffffffffffffffffffffffffffffffffffff82612453565b61249a8683612453565b95508019841693508086168417925050509392505050565b6000819050919050565b60006124d76124d26124cd84611a97565b6124b2565b611a97565b9050919050565b6000819050919050565b6124f1836124bc565b6125056124fd826124de565b848454612460565b825550505050565b600090565b61251a61250d565b6125258184846124e8565b505050565b5b818110156125495761253e600082612512565b60018101905061252b565b5050565b601f82111561258e5761255f8161242e565b61256884612443565b81016020851015612577578190505b61258b61258385612443565b83018261252a565b50505b505050565b600082821c905092915050565b60006125b160001984600802612593565b1980831691505092915050565b60006125ca83836125a0565b9150826002028217905092915050565b6125e382611d99565b67ffffffffffffffff8111156125fc576125fb611b58565b5b61260682546123fd565b61261182828561254d565b600060209050601f8311600181146126445760008415612632578287015190505b61263c85826125be565b8655506126a4565b601f1984166126528661242e565b60005b8281101561267a57848901518255600182019150602085019450602081019050612655565b868310156126975784890151612693601f8916826125a0565b8355505b6001600288020188555050505b505050505050565b7f4e487b7100000000000000000000000000000000000000000000000000000000600052601160045260246000fd5b60006126e682611a97565b91507fffffffffffffffffffffffffffffffffffffffffffffffffffffffffffffffff8203612718576127176126ac565b5b600182019050919050565b6000606082019050818103600083015261273d8186611fb7565b905081810360208301526127518185611fb7565b90506127606040830184611aa1565b949350505050565b7f456d706c6f79656520616c726561647920657869737473000000000000000000600082015250565b600061279e601783611fa6565b91506127a982612768565b602082019050919050565b600060208201905081810360008301526127cd81612791565b9050919050565b600060208201905081810360008301526127ee8184611fb7565b905092915050565b7f4e6f7420612076616c696420656d706c6f796565000000000000000000000000600082015250565b600061282c601483611fa6565b9150612837826127f6565b602082019050919050565b6000602082019050818103600083015261285b8161281f565b9050919050565b7f416d6f756e74206d7573742062652067726561746572207468616e2030000000600082015250565b6000612898601d83611fa6565b91506128a382612862565b602082019050919050565b600060208201905081810360008301526128c78161288b565b9050919050565b7f496e73756666696369656e7420636f6e74726163742062616c616e6365000000600082015250565b6000612904601d83611fa6565b915061290f826128ce565b602082019050919050565b60006020820190508181036000830152612933816128f7565b9050919050565b600081905092915050565b50565b600061295560008361293a565b915061296082612945565b600082019050919050565b600061297682612948565b9150819050919050565b7f5472616e73666572206661696c65640000000000000000000000000000000000600082015250565b60006129b6600f83611fa6565b91506129c182612980565b602082019050919050565b600060208201905081810360008301526129e5816129a9565b9050919050565b6000604082019050612a016000830185611aa1565b8181036020830152612a138184611fb7565b90509392505050565b7f43616c6c6572206973206e6f7420612073747564656e74000000000000000000600082015250565b6000612a52601783611fa6565b9150612a5d82612a1c565b602082019050919050565b60006020820190508181036000830152612a8181612a45565b9050919050565b6000612a9382611a97565b9150612a9e83611a97565b9250828201905080821115612ab657612ab56126ac565b5b9291505056fea2646970667358221220ed3678cc603da884cb74fc5775b658d3020f680d5b67434ba867b0338e2d0da664736f6c63430008130033",
  "linkReferences": {},
  "deployedLinkReferences": {}
}